:020000040800F2
:10000000701A0020A9010008A7350008FD2D00087E
:10001000A535000871110008F54100080000000036
:10002000000000000000000000000000793B000814
:10003000B711000800000000013900087D3B0008EE
:10004000C3010008C3010008C3010008C301000880
:10005000C3010008C3010008C3010008C301000870
:10006000C3010008C3010008C3010008C301000860
:10007000C3010008C30100087511000881110008C0
:10008000C3010008C3010008C3010008C301000840
:10009000C3010008C3010008C3010008C301000830
:1000A000C3010008C3010008C3010008C301000820
:1000B000C3010008C3010008C3010008C301000810
:1000C000C3010008C3010008C3010008C301000800
:1000D000C301000891410008C3010008C3010008E2
:1000E000C3010008C3010008C301000800F002F8C2
:1000F00000F04BF80AA090E8000C82448344AAF177
:100100000107DA4501D100F040F8AFF2090EBAE874
:100110000F0013F0010F18BFFB1A43F0010318473B
:100120002850000048500000103A24BF78C878C119
:10013000FAD8520724BF30C830C144BF04680C60ED
:10014000704700000023002400250026103A28BF35
:1001500078C1FBD8520728BF30C148BF0B60704739
:10016000642900F0CF80732900F0C9830020704714
:100170001FB500F0F3FC04000020002104F03EFA5B
:10018000401C60601FBD10B510BD00F0C2FC1146E0
:10019000FFF7EEFF04F046F800F0F2FC03B4FFF7BF
:1001A000F2FF03BC00F036FD0948804709480047CC
:1001B000FEE7FEE7FEE7FEE7FEE7FEE7FEE7FEE717
:1001C000FEE7FEE704480549054A064B7047000074
:1001D000F73B0008ED00000870080020701A0020AE
:1001E000700A0020700A002010B54C1084EA5304F5
:1001F00004D54042C1F1000138BF491E1B4204D55D
:100200005242C3F1000338BF5B1E00F071FA14F0D4
:10021000804F04D04042C1F1000138BF491E14F0A4
:10022000004F04D05242C3F1000338BF5B1E10BD23
:100230000FB41CB50C0007AA009001D02044401E4A
:10024000074B7B4469460190069800F026FB002C82
:1002500003D06946002000F033FB1CBC5DF814FBA2
:100260008506000070B5044685690068C10601D5A1
:10027000302600E02026C00707D070BDD4E9012158
:1002800030469047206A401C20626D1EF6D570BD36
:1002900070B5044685690078C00707D170BDD4E900
:1002A000012120209047206A401C20626D1EF6D557
:1002B00070BD70B50C460546012A05D02878800629
:1002C00000D5EA69002302E0012305E05B1C9342AC
:1002D00002D2E05C0028F9D1A869E618C01AA8612A
:1002E000286A184428622846FFF7BCFF04E0D5E9D5
:1002F000012114F8010B9047B442F8D32846FFF7C8
:10030000C7FF70BD2DE9F04106460024106875292D
:10031000314616A510D0AFF30080002802DA404223
:1003200013A507E031688A0701D512A502E0490745
:1003300004D511A5012401E0AFF3008000210A22B9
:1003400006F1240709E0B0FBF2FCB0FBF2F302FB7C
:100350001C00303078541846491C0028F3D123463D
:100360002A463046BDE8F04100F039BA00000000EE
:100370002D0000002B000000200000002DE9F05FA0
:10038000894604464FF0000ADFF824B1FB44C0F868
:1003900020A02046E168884700287DD0252806D087
:1003A000D4E901219047206A401C2062F1E7002532
:1003B0005F462046E16888472028064607DB312E45
:1003C00005D2B81910F8200C08B10543F1E7A807C9
:1003D00001D525F00405C4F81CA00027C4F818A016
:1003E0002A2E09D0304603F016FF38B304EB8708F5
:1003F000303EC8F8186019E059F8041B204604EB99
:1004000087029161E1688847012F064618D1E069AB
:10041000002820DA25F020051DE0D8F8180000EBB0
:10042000800006EB40003038C8F818002046E1682C
:100430008847064603F0EFFE0028EED1012F0AD0D0
:100440002E2E08D12046E16888477F1C0646022FE1
:1004500045F02005C4DBA069002803DA404245F0DE
:100460000105A061E80701D025F01005A6B1A6F1AD
:100470004100192802D8203645F400654A46314625
:10048000204625604D46FFF76BFE60B1012807D07E
:10049000ED1D25F0070000E007E000F1080978E70E
:1004A00005F1040975E730467AE7206ABDE8F09F58
:1004B000864D000070B5064600F016F90468054642
:1004C00030460A22002100F01EFA2C6070BD0000A8
:1004D000014A00F051BA0000AC000020401ECAB230
:1004E00010F8011F8A4202D00029F9D1002070477C
:1004F00010B5431C02E010F8011B71B18107FAD15D
:100500004FF0013202C88C1A8C4314EAC211F9D0A0
:10051000C01A0A0603D0C01E10BDC01A10BD0A04BE
:1005200001D0801E10BD0902FCD0401E10BD40EA63
:10053000010370B59B072ED14FF00136042A2AD350
:1005400008C810C99D1B9D43121F15EAC61517D078
:10055000D8B2E1B2401A50EA056110D198B2A1B206
:10056000401A50EA05410AD123F07F4024F07F4130
:10057000401A50EA052102D1180EA0EB146070BD9C
:10058000A342DBD018BA21BA884201D9012070BD3C
:100590004FF0FF3070BD0AB9002070BD10F8013B6C
:1005A00011F8014B63B1A3420AD1521E08D010F8D2
:1005B000013B11F8014B1BB1A34201D1521EEDD1F9
:1005C000181B70BD032A40F2308010F0030C00F0BD
:1005D000158011F8013BBCF1020F624498BF11F87D
:1005E00001CB00F8013B38BF11F8013BA2F1040236
:1005F00098BF00F801CB38BF00F8013B11F00303AE
:1006000000F0DC81083AC0F0088051F8043B083A59
:1006100051F804CBA0E80810F5E7121D5CBF51F8B3
:10062000043B40F8043BAFF30080D20724BF11F82D
:10063000013B11F801CB48BF11F8012B24BF00F892
:10064000013B00F801CB48BF00F8012B70474FF089
:1006500000020429C0F0128010F0030C00F01B808F
:10066000CCF1040CBCF1020F18BF00F8012BA8BF9D
:1006700020F8022BA1EB0C0100F00DB85FEAC17C61
:1006800024BF00F8012B00F8012B48BF00F8012B14
:1006900070474FF0000200B5134694469646203945
:1006A00022BFA0E80C50A0E80C50B1F12001BFF42B
:1006B000F7AF090728BFA0E80C5048BF0CC05DF891
:1006C00004EB890028BF40F8042B08BF704748BFDF
:1006D00020F8022B11F0804F18BF00F8012B704753
:1006E0007047704770470000004870470C080020B2
:1006F00053EA020C00F069802DE9F04B4FF0000640
:10070000002B1FBFB3FA83F503FA05F424FA05F6AC
:100710005E4012BF1643B2FA82F502FA05F4C5F143
:1007200020051EBF22FA05FC44EA0C04203556EAD7
:10073000044C4FEA144418BF641C4FF000084FF0FB
:100740000009904271EB030C39D3002919BFB1FAAB
:1007500081F701FA07F6B0FA80F700FA07F6C7F159
:1007600020071EBF20FA07FC46EA0C062037B6FB1E
:10077000F4FCA7EB0507103F07F01F0BCBF1200699
:100780000CFA0BFB2CFA06F644BFB3460026202FCA
:10079000A4BF5E464FF0000B5BEA060C08BF4FF0AB
:1007A000010B19EB0B09ABFB027C48EB0608C01BE5
:1007B00006FB02CC0BFB03CC71EB0C01C1E70B4633
:1007C000024641464846BDE8F08B13B54FF00000A5
:1007D0004FF00001AFF30080BDE81C4070472DE9E9
:1007E000F0470D4699469246044600F124080168F8
:1007F000880604D5E06921F01001216000E00120A5
:10080000A84201DD471B00E00027A1697A1902EB2D
:100810000900081AA0612078C00602D42046FFF71C
:1008200021FD002608E0D4E901211AF806009047CE
:10083000206A401C761C20624E45F4DB2078C006FE
:100840000AD52046FFF70EFD06E0D4E9012130204D
:100850009047206A401C2062381EA7F10107F4DC93
:1008600007E0D4E9012118F805009047206A401CF0
:100870002062281EA5F10105F3DC2046FFF708FDE4
:100880002078000602D50220BDE8F0870120FBE7B2
:1008900001694A1C02610878704700B58FB0CDE944
:1008A00001310021059105497944CDE90310114634
:1008B0006846FFF763FD0FB000BD0000E5FFFFFFD6
:1008C0000A6802F8010B0A607047D1E900239A42D6
:1008D00002D2531C0B601070704710B5436913B1FE
:1008E000AFF3008001E0FFF7E4FC012010BD1278B7
:1008F00000F124010A7000224A700122EDE711681C
:100900004FF0FF32E9E72DE9F04791460F46804668
:100910000446002614F8015B2DB100F085F800684C
:10092000405DC007F6D12B2D02D02D2D18D0641EAE
:100930004A463946204600F07FF827B13968A1427F
:1009400001D1C7F800804FF0020471050BD5404279
:10095000002803DDFFF7C8FE0460A007BDE8F087AC
:1009600046F48066E4E70028F8DAFFF7BDFE04608D
:100970006FF00040F2E700002DE9F04115460E4609
:10098000040002D12C6804B90BA4204600F0B3F88F
:100990000444207870B127463146384600F09BF871
:1009A0000444207810B1002004F8010B38462C6074
:1009B000BDE8F0810027F9E70000000010B5203AFB
:1009C000C0F00B80B1E81850203AA0E81850B1E808
:1009D0001850A0E81850BFF4F5AF5FEA027C24BFBE
:1009E000B1E81850A0E8185044BF18C918C0BDE8B5
:1009F00010405FEA827C24BF51F8043B40F8043B7E
:100A000008BF7047D20728BF31F8023B48BF11F832
:100A1000012B28BF20F8023B48BF00F8012B70478C
:100A2000004870470C08002010B500F097F8001D32
:100A300010BD00BFC93B00002DE9F05F824615469E
:100A40008B4600270AF10104B9460078302801D00E
:100A50009DB113E014F8010B0127782803D0582822
:100A600001D045B10AE00DB1102D07D1002714F8CF
:100A7000010B102502E0082500E00A250026B046FB
:100A80000EE005FB080005FB06F101271FFA80F8C0
:100A900001EB1046B6F5803F00D3B94614F8010BC0
:100AA000294600F05FF80028EBDABBF1000F05D013
:100AB0000FB1641E00E05446CBF80040B9F1000FBE
:100AC00006D0FFF711FE02210160C81EBDE8F09FAD
:100AD00048EA0640FAE730B503461D781DB10A46DC
:100AE00003E0AC4201D1181A30BD12F8014B002CC2
:100AF000F7D15B1CF1E730B503461D783DB10A46DE
:100B000012F8014B1CB1AC42FAD15B1CF5E7181A84
:100B100030BD7546FFF784FFAE4605006946534673
:100B200020F00700854618B020B5FFF74BFBBDE865
:100B300020404FF000064FF000074FF000084FF044
:100B4000000B21F00701AC46ACE8C009ACE8C009D5
:100B5000ACE8C009ACE8C0098D4670470048704752
:100B60002C0800203A2800D2303820F02002412AF8
:100B700001D3A2F13700884201D34FF0FF30704714
:100B800010B50446AFF300802046BDE81040FFF7E3
:100B900005BB00004FF0013C50F8042B51F8043B1A
:100BA0009A4221D1A2EB0C03934313EACC1317D141
:100BB00050F8042B51F8043B9A4215D1A2EB0C03D8
:100BC000934313EACC130BD150F8042B51F8043B98
:100BD0009A4209D1A2EB0C03934313EACC13DBD066
:100BE0004FF00000704700BFD01A01BAB1FA81F18E
:100BF00001F0180122FA01F0CB40C1F12001DBB273
:100C0000C0B2C01A2CFA01F3D11A914311EAC311F0
:100C1000E6D1704701491820ABBEFEE7260002006E
:100C200070470000002809D006498A783AB10A883E
:100C3000028000208870091D887001207047002004
:100C40007047000078000020064801210170064925
:100C50000968416000218170417008308170001D79
:100C60008170704770000020980000202DE9FC473B
:100C700038480568384C0026062720784FF00309CD
:100C80004FF0010A04F10808072857D2DFE800F006
:100C90002E041A32565258000121232002F0DAFAAB
:100CA00020B102206560207066701DE0A078401CB5
:100CB000C0B2A070032803D302F0A2F827706560C9
:100CC000BDE8FC876068281A0A28F9D3617811B159
:100CD000B42833D2F4E71021232002F0BBFA002815
:100CE000E4D084F801A06560A670E9E7656084F847
:100CF0000090E5E76068281AC828E1D364200090D6
:100D0000022301AA4621154800F00AFF0028CDD190
:100D1000BDF8040040BA00EBC00101EB0011B1FBCB
:100D2000F9F1A8F8001088F802A0A068E06005209A
:100D30002070D9E798F802000028C1D12670BFE7DB
:100D40006068281AB0F5FA6FBAD9BDE8FC47FFF71A
:100D50007BBF00009800002070000020B000002041
:100D60002DE9F05F83465B4AC8178918A1FB012370
:100D700040F1FF30584C00FB0133B4F9105001FB37
:100D80000038A2FB0537EE1708FB057502FB065974
:100D9000B4F90E504FF0000AA5FB017CEE1706FBDC
:100DA00001C605FB00656E0446EAD7367F04FB18D2
:100DB00046EB09061AEB0309B4F90A30B4F90C50F2
:100DC000A2FB037C46EBC5054FEAE37608FB03C3B1
:100DD00002FB0632B4F908604FEA1723A6FB01C8EC
:100DE0004FEAE67707FB018106FB00104FEA00316E
:100DF00043EA02634FEA0C3041EA1C51181841EBF8
:100E00002222001CE18842F50043A0FB016703FB9E
:100E1000017100FB0A104210C31752EA030056D0BA
:100E2000CBF58010C117C907C60741EA5001B6EBE0
:100E3000090640F63547A6FB070C61EB050101FBEF
:100E400007C1002506FB0511FFF7CEF9B4F91650CE
:100E5000420B42EAC142A5FB027CEE1706FB02C62A
:100E60004B1305FB0365A7FB026C05FB02C207FBE6
:100E70000323720E42EAC3125D16B4F91430A3FBC9
:100E8000007CDE1706FB00C603FB0166FB0C801826
:100E900043EA46336941C0184FEA1022B4F9120000
:100EA00041EBE6414FEAE0734FEA031343EA107364
:100EB00042EA01624FEA0010101843EB21214FF47F
:100EC00080724FF00003FFF78FF9BDE8F09F00201C
:100ED000FBE70000000CFEFFF207002000B587B022
:100EE00018226946882000F089F8002825D0144887
:100EF000BDF800100180BDF802104180BDF804105B
:100F00008180BDF80610C180BDF808100181BDF8D0
:100F10000A104181BDF80C108181BDF80E10C1810D
:100F2000BDF810100182BDF812104182BDF81410F6
:100F30008182BDF81610C182012007B000BD0000FB
:100F4000F207002058B151B1064A13793BB113881A
:100F50000380508808800020107101207047002015
:100F6000704700008C00002038B505246946D02069
:100F700000F02AF818B19DF80000582807D00A2080
:100F800000F09CFA641E14F0FF04EFD116E0ACB13F
:100F9000FFF7A4FF90B1A421F52000F0D5F80028B8
:100FA0000BD02521F42000F0CFF8002805D000F068
:100FB0001DFC044948600120087038BD01F02CFF79
:100FC000002038BD8000002033B581B00D46642478
:100FD000012301AAEC210848009400F0C9FE38B9A9
:100FE00001232A46EC210448009400F099FD08B141
:100FF00000203EBD01203EBDB000002077B581B08D
:1010000015460E466424012301AAEC2108480094E9
:1010100000F0AEFE38B92B463246EC21044800946D
:1010200000F07EFD10B1002004B070BD0120FBE790
:10103000B00000202DE9FE4300F0D8FB404C0546EF
:101040004FF001082078032798B104F10C0601281D
:1010500018D002286ED0032809D1A068281AB0F54C
:101060007A7F04D9FFF780FF002800D1A560BDE892
:10107000FE832521F42000F067F8E8B3656084F86A
:101080000080F4E76068281AC8284FD86946F32022
:10109000FFF79AFF80B39DF800000007E7D406220F
:1010A00001A9F720FFF7AAFF30B39DF804009DF8CF
:1010B0000510000340EA01109DF806109DF8082075
:1010C00040EA11109DF80710090341EA02119DF84A
:1010D000092041EA12111B4ACB101588B2F902709F
:1010E000A3EB4503C5EB21117B434943B2F904202F
:1010F000DB120913514300E018E003EBA13101EBCF
:10110000810280321512FFF72BFE68B10A2195FB90
:10111000F1F2B0FBF1F03280708086F80480E06874
:10112000C4F81200208AE082022006E001F074FE7A
:1011300027709BE73079002899D1207097E700004D
:1011400080000020F20700201CB502238DF8040067
:1011500064208DF80510009001AAEC21034800F0EE
:1011600007FE08B100201CBD01201CBDB0000020FE
:10117000FEE70000014800F091B80000E8010020FF
:10118000014800F08BB800002C02002030B590F828
:1011900040500124AC40C56B6C60046863604368D8
:1011A000102B036803D099600068C26030BD9A605C
:1011B0000068C16030BD704772B6FEE710B590F8A8
:1011C00021100022022905D00421816380F820200B
:1011D000012010BD01680B6823F00E030B6001684D
:1011E0000B6823F001030B6090F84030C46B0121C1
:1011F00001FA03F3636080F8211080F82020104684
:1012000010BD000010B590F821100024022903D071
:101210000421816301243DE001680A6822F00E0286
:101220000A6001680A6822F001020A601A4A01682D
:10123000914201D1012121E0174A1432914201D19A
:1012400010211BE0144A2832914201D1891515E082
:10125000114A3C32914201D189140FE00E4A5032BA
:10126000914202D14FF4803108E00B4A643291423E
:1012700002D14FF4801101E04FF08071064A083A24
:101280005160012180F82110002180F82010416B6D
:1012900001B18847204610BD080002402DE9F05FEB
:1012A000C16B0C6801680B68D0F840C0042202FAD8
:1012B0000CF2494DDFF824A1494E4A4FDFF828B11E
:1012C000DFF828E122422CD05A072AD50A68920674
:1012D00003D40A6822F004020A600168A94201D11D
:1012E000042219E0514501D1402215E0B14202D15A
:1012F0004FF4806210E0B94202D14FF480420BE01B
:10130000594502D14FF4802206E0714502D14FF4D5
:10131000800201E04FF080622F4908394A60C16ABB
:101320003BE04FF0020808FA0CF818EA040F4FF0FF
:1013300000094FF0010235D05FEA837832D50B689F
:101340009B0605D40B6823F00A030B6080F821206C
:101350000168A94201D1022219E0514501D12022A0
:1013600015E0B14202D14FF4007210E0B94202D14F
:101370004FF400520BE0594502D14FF4003206E021
:10138000714502D14FF4001201E04FF00072124992
:1013900008394A6080F82090816A00291AD0BDE897
:1013A000F05F0847082505FA0CF5254212D01B0707
:1013B00010D50B6823F00E030B6090F84010C36B40
:1013C00002FA01F15960826380F8212080F82090B0
:1013D000016BE2E7BDE8F09F080002401C000240FC
:1013E0003000024044000240580002406C000240BD
:1013F00030B528B308C8134914221944B1FBF2F1DF
:101400008900C16310498163022141771A6843F65C
:10141000F0718A43D0E900142143D0E902452C43FE
:1014200021430469214344692143846921431143D1
:10143000196000214163012242770177084630BDDF
:10144000012030BDF8FFFDBF0000024070B504462A
:1014500090F82000002501280CD0012084F82000FD
:1014600094F821600020012E06D084F82000022587
:10147000284670BD022070BD022684F82160A0635A
:101480002068066826F0010606602046FFF77EFE0B
:10149000E06A00282068016802D041F00E0106E0F1
:1014A00021F0040101602068016841F00A01016037
:1014B0002068016841F001010160D9E770B5044678
:1014C00000F094F90546601C02D0044800780444FA
:1014D00000F08CF9401BA042FAD370BD9C000020A4
:1014E0002DE9F04300233E4F0F2573E001229A407F
:1014F0000A406DD023F00304E619D6F808809C0753
:101500004FEA147C05FA0CF909EA0804DFF8D480E4
:10151000404502D14FF0000816E0DFF8CC8040458E
:1015200002D14FF001080FE0DFF8C080404502D142
:101530004FF0020808E0DFF8B880404502D14FF0D4
:10154000030801E04FF0040808FA0CF8A04522D186
:10155000284CD4F800C02CEA020CC4F800C0241DAA
:10156000D4F800C02CEA020CC4F800C0214C0C34A2
:10157000D4F800C02CEA020CC4F800C0241FD4F830
:1015800000C02CEA020CC4F800C0D6F808C02CEA4F
:10159000090CC6F808C0FF2A01D8064601E000F190
:1015A00004064FEA830401D9A4F12004D6F800C050
:1015B00005FA04F82CEA080C4FF0040808FA04F8BD
:1015C0004CEA080CC6F800C0C46824EA0204C460EF
:1015D00003F1010331FA03F288D1BDE8F083000082
:1015E0000000014000080140000C014000100140D3
:1015F00000140140000401402DE9F84FDFF8B891D4
:101600000024A9F1040B23460F2709F1040AABF1CA
:10161000040EC9E00125A5402A40AA427DD1674EAB
:10162000D1F804C0ACEB0608B44532D014DCBCF1F0
:10163000030F3AD009DCBCF1000F2AD0BCF1010F36
:101640001CD0BCF1020F31D11DE0BCF1110F17D03D
:10165000BCF1120F2AD119E0B8F5881F19D006DCA9
:10166000B8F5803F15D0B8F5801F1FD111E0B8F54F
:10167000001F0ED0B8F5041F18D10AE0CB6815E0A2
:10168000CB681B1D12E0CB6808330FE0CB680C332E
:101690000CE08B682BB1012B4FF0080303D04561A0
:1016A00004E0042302E0056100E00023FF2A01D8E2
:1016B000064601E000F104064FEA840501D9A5F1D0
:1016C0002005D6F8008007FA05FC28EA0C0803FA82
:1016D00005F548EA0508C6F800804D68ED0062D5BA
:1016E000374DAE6946F00106AE61AD6924F00306E0
:1016F00005F001050095334D06EB050CDCF80850AC
:10170000A607360F07FA06F825EA0805DFF8B880BD
:10171000404503D14FF0000817E044E0DFF8AC800B
:10172000404502D14FF001080FE0DFF8A4804045AA
:1017300002D14FF0020808E0DFF89880404502D15E
:101740004FF0030801E04FF0040808FA06F848EAF1
:101750000508CCF808804D68D9F80060ED024D46C8
:1017600001D5164300E096432E604D68DAF800601C
:10177000AD02554601D5164300E096432E604D68F4
:10178000DBF80060AD035D4601D5164300E09643EB
:101790002E604D68DEF80060ED03754601D51643F6
:1017A00000E096432E60641C0D682A46E5407FF4F5
:1017B00031AFBDE8F88F00000804014000001110AF
:1017C000001002400000014000080140000C0140F0
:1017D00000100140001401408068084000D0012042
:1017E00070470AB1016170470904FBE7014880684E
:1017F000704700009C00002010B5040013D0242086
:1018000084F83D002068016821F001010160204654
:1018100000F044FB0020206484F83D0044F8300FC1
:10182000A073207310BD012010BD000070B504002E
:1018300025D094F83D00002520B984F83C5020467E
:1018400000F058FB242084F83D002068016821F056
:10185000010101602068016841F4004101602068D5
:10186000016821F40041016000F0BEFC4D4A61684E
:10187000914201D84C4900E04C49884201D20120F4
:1018800070BD4B492368B0FBF1F15E6826F03F065E
:101890000E435E606368934206D94FF496735943D2
:1018A0004FF47A73B1FBF3F12368491C1E6A26F0EA
:1018B0003F06314319626168914210D84900401EC9
:1018C000B0FBF1F2521CC2F30B02042A01D2042035
:1018D00022E0B0FBF1F0401CC0F30B001CE0A2685A
:1018E000F2B301EBC10303EB0116431EB3FBF6F3A6
:1018F0005B1C43F480431B0549D092B301EBC1024A
:1019000002EB0111401EB0FBF1F0401CC0F30B00D4
:1019100040F4804040F400402168CA694CF6FF73EF
:101920009A431043C861D4E9071001432068026854
:1019300022F0C00211430160D4E903010143206891
:10194000826848F2FF339A4311438160D4E905016C
:1019500008432168CA6822F0FF021043C86001E012
:101960000EE016E02068016841F001010160256485
:10197000202084F83D00256384F83E50002070BD8F
:1019800001EB4106431EB3FBF6F35B1CB3E70120FA
:10199000C2E701EB4101401EB0FBF1F0401CC0F377
:1019A0000B00B7E7A086010080841E0000093D00FF
:1019B00040420F002DE9FF4F81B089460446FFF7F2
:1019C00015FF054694F83D004FF0000820287DD112
:1019D0001923012250492046009501F031FB0028CF
:1019E00074D194F83C00012870D0012084F83C00A8
:1019F00020680168C90703D1016841F00101016055
:101A00002068016821F400610160242084F83D0011
:101A1000002626644148E0624FF0011B2027206821
:101A2000016841F48071016000950022594620460A
:101A3000049B01F005FB50B120680068C00502D589
:101A40004FF400702064032005B0BDE8F08F2168DA
:101A500009F0FE000861FFF7C9FE216805464869E4
:101A60004969C0F34000C1F380214FF0A00A0FE0A4
:101A7000FFF7BCFE411B0498814200D808B984F8E6
:101A80003DA0216848694969C0F34000C1F3802145
:101A900094F83D20A02A02D008B90029E8D084F8A3
:101AA0003D7020684169C943890716D4016841F433
:101AB000007101602068416980691923012216497B
:101AC0002046009501F0BCFAB8B900E021E084F8A6
:101AD0003D7084F83C600020B6E7016841F4007175
:101AE000016021686FF480604861192301220A496E
:101AF0002046009501F0A4FA08B10120A4E703985C
:101B000008F1010880458AD384F83D7084F83C6070
:101B1000F3E7022098E70000020010000000FFFF3A
:101B20002DE9F84F0025DDF82890984617468A469B
:101B300004460095FFF75AFE064694F83D0020281B
:101B40007AD11923012286492046009601F078FABD
:101B50000028F5D194F83C0001286DD0012084F8CC
:101B60003C0020680168C90703D1016841F0010108
:101B700001602068016821F400610160222084F87E
:101B80003D00102084F83E0025646762A4F82A8096
:101B9000608D20857348E06233464A4651462046B0
:101BA00001F05EF900287CD1208DDFF8BC81202770
:101BB00068B1012814D00228206801681ED041F4C1
:101BC000806101602068416980690090BBE0206805
:101BD000416981690091016841F400710160B2E0DE
:101BE0002068016821F48061016072B62068416953
:101BF00081690091016841F400710AE041F40061DB
:101C0000016072B62068416981690091016821F420
:101C10008061016062B696E0032865D801280CD087
:101C200002284B464FF000024146204600960BD05A
:101C300001F006FAA8BB0CE090E032464946204687
:101C400001F0A4FA68BB71E001F0FAF948BB72B682
:101C500033E02068016821F48061016072B6206879
:101C60000069616A0870606A401C6062208D401ED5
:101C70002085608D401E60853C4846F2A8110068B2
:101C8000B0FBF1F0C0EBC00000EB80000090401E04
:101C9000009007D020684069C04340070DD50098E8
:101CA000F5E727E044F8305F6773A573206940F0DB
:101CB0002000206162B625731CE02068016841F4B1
:101CC0000071016020680069616A0870606A401CE8
:101CD0006062218D491E2185618D491E618562B634
:101CE00021680969017025E032464946204601F025
:101CF0004DFA10B10120BDE8F88F20680069616AD3
:101D00000870606A401C6062208D401E81B221858F
:101D1000608D401E608520684269D243520712D40C
:101D2000032903D1016821F4806101602068006902
:101D3000616A0870606A401C6062208D401E2085C8
:101D4000608D401E6085208D00287FF465AF84F88B
:101D50003D7084F83E5084F83C50CCE70220CAE73E
:101D6000020010000000FFFF04000100A800002096
:101D70002DE9F84F1F4690468A460446DDF8289024
:101D8000FFF734FD054694F83D0020287FD1192344
:101D9000012240492046009501F052F9002876D1F1
:101DA00094F83C00012872D0012084F83C0020689F
:101DB0000168C90703D1016841F001010160206891
:101DC000016821F400610160212084F83D001020A9
:101DD00084F83E0000262664C4F824806785608D60
:101DE00020852D48E0622B464A465146204601F0A8
:101DF000ADF890B9206841698069009036E02A46C4
:101E00004946204601F0FAF950B1206C042804D16B
:101E10002068016841F4007101600120BDE8F88F7D
:101E2000606A216800780861606A401C6062618DA8
:101E3000491E6185218D491E89B221852268536919
:101E4000DB435B070BD451B100781061606A401C22
:101E50006062608D401E6085208D401E20852A4670
:101E60004946204601F0C0F80028CED1208D002838
:101E7000C5D154F83D0B016841F400710160202088
:101E800004F81E09E67766770020C7E7FFE702201F
:101E9000C4E70000020010000000FFFF10B500685A
:101EA000104A1149114C904209D1C86920F4001020
:101EB000C86140212046FFF713FB80210CE00C4A4B
:101EC00090420ED1C86920F48000C86111152046E7
:101ED000FFF706FB4FF400612046BDE81040FFF716
:101EE000FFBA10BD0054004000100240000C014039
:101EF0000058004030B585B0002100910191029159
:101F000003911E4D03681E4C122103221D48AB4253
:101F100016D1A36943F00803A361A369039203F0F8
:101F200008030493C023CDE900316946FFF764FB41
:101F3000E06940F40010E061E06900F4001019E08D
:101F4000114DAB4217D1A36943F00803A361A36904
:101F5000039203F0080304934FF44063CDE900318A
:101F60006946FFF749FBE06940F48000E061E06901
:101F700000F48000049005B030BD00000054004023
:101F800000100240000C01400058004002488168E7
:101F900002781144816070479C000020074810B50A
:101FA000016841F010010160032000F075F80F2076
:101FB00000F006F800F024F8002010BD00200240D8
:101FC00070B50D4D04464FF47A712878B1FBF0F0EE
:101FD0000A490968B1FBF0F000F0DCFA48B9102CAE
:101FE00007D200222146501E00F036F800206C6017
:101FF00070BD012070BD00009C000020A8000020E2
:102000000C4808B5816941F001018161816901F0E5
:1020100001010091C16941F08051C161C06900F0C6
:10202000805000900448416821F0E06141F0007167
:10203000416008BD0010024000000140002809DB9B
:1020400000F01F02012191404009800000F1E020D2
:10205000C0F8001170470000F0B40E4B1B680C462E
:10206000C3F30223C3F10705042D00D90425191D6C
:10207000072901D2002300E0DB1E012606FA05F144
:10208000491E214099409E40761E16403143F0BCC7
:1020900002F0B1B80CED00E0064900F00702086854
:1020A0004FF6FF03184040EA0220034A104308603D
:1020B000704700000CED00E00000FA052DE9F04744
:1020C0000F46050061D0434E306800F00700B8426B
:1020D00009D2306820F0070038433060306800F0E3
:1020E0000700B84251D128683B4C810712D5400700
:1020F00003D5606840F4E06060602878000703D58D
:10210000606840F4605060606068A96820F0F0008A
:10211000084360602878C00728D06868012810D07C
:102120002168022810D0890700292EDA616821F081
:10213000030101436160FFF759FB804641F2883992
:102140000DE021688903EFE78901EDE7FFF74EFB1A
:10215000A0EB0801494502D90320BDE8F08760687B
:10216000696800F00C00B0EB810FEFD1306800F02F
:102170000700B8420BD9306820F0070038433060C0
:10218000306800F00700B84201D00120E5E7287868
:10219000400705D56068E96820F4E06008436060A6
:1021A0002878000706D56068296920F4605040EA65
:1021B000C100606000F038F86168084AC1F303119B
:1021C000515CC8400649086006480068FFF7F8FE01
:1021D0000020C2E70020024000100240FE5000082C
:1021E000A8000020A00000200448054900684968B4
:1021F000044AC1F30221515CC8407047A800002086
:10220000001002400E510008044805490068496862
:10221000044AC1F3C221515CC8407047A8000020A5
:10222000001002400E5100080E4A51680E4801F09D
:102230000C03042B11D0082B0FD10C48C1F383439E
:10224000C903C05C0AD55168084AC1F34041921ED7
:10225000515C054A5043B0FBF1F0704704494843D4
:10226000704700000010024000127A00EE50000893
:1022700000093D002DE9F84F040070D02078C04DD2
:10228000C00749D06868C0F38100012807D068689A
:10229000C0F38100022809D16868C00306D5286808
:1022A000800339D560680028E7D035E06068B0F574
:1022B000803F0BD010B1B0F5A02F11D0286820F4CA
:1022C00080302860286820F4802002E0286840F4EC
:1022D00080302860606890B1FFF788FA06460AE00F
:1022E000286840F480202860F0E700BFFFF77EFAFE
:1022F000801B642873D828688003F7D50CE0FFF7AB
:1023000075FA064605E000BFFFF770FA801B6428E7
:10231000F0D828688003F7D420789A4E80074FF0D1
:1023200001094FF0000839D5686810F00C0F07D08C
:102330006868C0F38100022809D16868C00306D428
:102340002868800714D52069012808D110E0206989
:10235000B0B1C6F80090FFF749FA074605E00AE178
:10236000FFF744FAC01B0228C4D828688007F7D5B5
:102370002868616920F0F80040EAC10028600DE09B
:10238000C6F80080FFF732FA074604E0FFF72EFA9E
:10239000C01B022823D828688007F7D420780007BC
:1023A0002CD57948A169D9B1C0F80090FFF71EFA81
:1023B000074604E0FFF71AFAC01B02280FD8686A24
:1023C0008007F7D571484FF4FA510068B0FBF1F07F
:1023D000009000BF0098411E0091FAD20EE080E00C
:1023E000C0F80080FFF702FA074604E0FFF7FEF9A5
:1023F000C01B022875D8686A8007F7D42078400788
:1024000060D5E8690027C00008D4E86940F0805032
:10241000E861E869012700F0805000905C4801689D
:10242000C90513D40168834641F480710160FFF748
:10243000DDF9824606E000BFFFF7D8F9A0EB0A00FD
:1024400064284ED8DBF80000C005F5D5E068012807
:102450000AD008B1052813D0286A20F001002862AC
:10246000286A20F0040002E0286A40F00100286297
:10247000E06841F2883B98B1FFF7B8F982460BE07B
:10248000286A40F004002862EEE700BFFFF7AEF9CB
:10249000A0EB0A0159455AD8286A8007F6D50CE006
:1024A000FFF7A4F9824605E0FFF7A0F9A0EB0A01C7
:1024B00059454CD8286A8007F6D41FB1E86920F046
:1024C0008050E861E06988B36968C1F3810102293D
:1024D00044D00228C6F8608004D0FFF787F904468C
:1024E00038E034E0FFF782F9074604E0FFF77EF9B1
:1024F000C01B02282BD828688001F7D4206AB0F5C9
:10250000803F05D16868A16820F400300843686006
:10251000D4E908010843696821F47411084368602C
:10252000C6F86090FFF762F9044606E025E000BFB8
:10253000FFF75CF9001B022809D828688001F7D54D
:102540001BE000BFFFF752F9001B022802D903204D
:10255000BDE8F88F28688001F4D40EE00128F7D098
:102560006868226A00F48031914204D1616A00F403
:102570007010884201D00120EAE70020E8E700005F
:10258000001002400000424280044242A8000020A5
:102590000070004010B5401EB0F1807F01D30120D3
:1025A00010BD4FF0E02460610F21601701F023FEA1
:1025B0000020A06107202061002010BD70B590F8B8
:1025C0003C20012A26D0012480F83C40022280F8D9
:1025D0003D2003685A689D6822F070060A683243FD
:1025E0005A600D4B02689A4208D0B2F1804F05D074
:1025F0000A4B9A4202D00A4B9A4204D1496825F00C
:1026000080031943916080F83D40002180F83C1020
:10261000084670BD022070BD002C0140000400403F
:102620000008004000B585B00021009101910291A1
:1026300003910068B0F1804F11D10A48816941F0DF
:10264000040181618069694600F00400049007205C
:1026500000900220019003900348FEF7CDFF05B0E3
:1026600000BD0000001002400008014070B50446A3
:1026700090F83C0000260D4601280FD0012084F878
:102680003C006AB1042A1DD0082A2FD00C2A3FD062
:102690000126002084F83C00304670BD022070BD49
:1026A000206801F0F3FA2068816941F00801816136
:1026B0002068816921F004018161206881692A69AB
:1026C000114311E0206801F009FB2068816941F4A1
:1026D000006181612068816921F4806181612068E5
:1026E00081692A6941EA02218161D2E7206801F00B
:1026F00021FB2068C16941F00801C1612068C169FE
:1027000021F00401C1612068C1692A69114311E007
:10271000206801F03BFB2068C16941F40061C161A0
:102720002068C16921F48061C1612068C1692A699A
:1027300041EA0221C161ACE710B5040003D094F86E
:102740003D0010B107E0012010BD002084F83C00DE
:10275000204600F01FF8022084F83D00211D20686B
:1027600001F04AFA012084F8460084F83E0084F81B
:102770003F0084F8400084F8410084F8420084F867
:10278000430084F8440084F8450084F83D000020AC
:1027900010BD000008B50068B0F1804F08D10548B1
:1027A000C16941F00101C161C06900F00100009000
:1027B00008BD00000010024010B50446022249B1D5
:1027C00004290ED0082913D094F84100012816D00E
:1027D000012010BD94F83E000128F9D184F83E2074
:1027E0000FE094F83F000128F2D184F83F2008E080
:1027F00094F840000128EBD184F8402001E084F8EF
:1028000041200122206801F033FA0F4920688842F4
:1028100003D1426C42F4004242642068884208D0EE
:10282000B0F1804F05D00949884202D0084988425A
:1028300004D1816801F00701062903D0016841F045
:1028400001010160002010BD002C01400004004087
:1028500000080040704710B504460068406994F8CD
:102860004110C0F3C010212911D180B1206814306B
:1028700050E8001F21F0800140E80012002AF5D145
:10288000A06B08B1FEF79AFC204601F06DFB2068B2
:10289000406994F84210C0F38010222911D180B110
:1028A0002068143050E8001F21F0400140E8001279
:1028B000002AF5D1E06B08B1FEF780FC204601F05C
:1028C0002CFB002010BD7047F8B50168044608686D
:1028D000CA684B6910F00F0F4FF0000559D003F094
:1028E000010602F49077374365D0C10705D0D105C2
:1028F00003D5616C41F001016164410705D5D90739
:1029000003D0616C41F002016164810705D5D907EC
:1029100003D0616C41F004016164010707D502F046
:102920002001314303D0616C41F008016164616CA6
:1029300000293AD0800604D5900602D5204601F041
:1029400021FB20684069616CC0F38010090700D446
:1029500060B3204601F0E1FA20684069400621D5C5
:102960002068143050E8001F21F0400140E80012B8
:10297000002AF5D1E06BA8B16D494163E06BFEF729
:1029800041FC002811D0E06B416B01B0BDE8F04084
:10299000084783060FD593060DD52046BDE8F840BD
:1029A00001F0F0BA2046FFF78EFFF8BD2046FFF792
:1029B0008AFF6564F8BD266B2023012E7CD1C606F4
:1029C0007AD5D60678D508684868009048694FF0EF
:1029D0000206400640D5E16B086840680004000C20
:1029E000E8D0A28D8242E5D9E085886920282DD0E3
:1029F00020680C3050E8001F21F4807140E800127C
:102A0000002AF5D12068143050E8001F21F00101A0
:102A100040E80012002AF5D12068143050E8001F69
:102A200021F0400140E80012002AF5D184F842303C
:102A3000256320680C3050E8001F21F0100140E8A9
:102A40000012002AF5D1E06BFEF7B8FB6663A08D9B
:102A5000E18D401A81B22AE0A08DE18D401A81B249
:102A6000E08D0028A6D00029A4D022680C3252E8BC
:102A7000000F20F4907042E80007002FF5D1206885
:102A8000143050E8002F22F0010240E80027002F08
:102A9000F5D184F84230256320680C3050E8002FCF
:102AA00022F0100240E80023002BF5D16663204697
:102AB000FFF7D0FEF8BDFFE705062BD5150629D593
:102AC00094F841002128F5D1A068B0F5805F01D1CC
:102AD0002069B0B1206A411C2162216800784860F9
:102AE000E08C401E0004000CE084E3D12068C16843
:102AF00021F08001C1602068C16841F04001C160DF
:102B0000D8E7206A0088C0F308004860206A801C6B
:102B10002062E5E74006CDD55006CBD5CA682046F1
:102B200022F04002CA6084F8413000F0F3F8C1E7B7
:102B3000D13D000870B5040004D094F84100002590
:102B400010B106E0012070BD84F84050204600F02E
:102B500023F8242084F841002068C16821F4005142
:102B6000C160204601F070FA2068016921F49041AB
:102B700001612068416921F02A0141612068C16832
:102B800041F40051C1606564202084F8410084F85C
:102B900042006563002070BD2DE9F04186B000243D
:102BA0000646009401940294039400682E498842DA
:102BB00056D12E48816941F480418161816901F4D7
:102BC00080410491816941F0040181618069284D4F
:102BD00000F0040004904FF4007000900220019077
:102BE0000320039069462846FEF706FD2815CDE927
:102BF0000004694628460294FEF7FEFC1E4D1D485F
:102C00004FF0800801C51020A5E81101070245F822
:102C1000104919486C61C5E90647FEF7E9FB08B1A0
:102C2000FEF7CAFAB5636E62134D1248443514308C
:102C3000C5E90004C5E902482C616C61C5E9064795
:102C40002846FEF7D5FB08B1FEF7B6FAF563002279
:102C5000114625206E62FFF7FFF92520FFF7EEF9F8
:102C600006B0BDE8F08100000038014000100240CD
:102C70000008014044000240E801002090F8423082
:102C8000202B01D00220704721B11AB10023036329
:102C900001F036BA012070477047704770B504469E
:102CA00090F84100202801D0022070BD49B342B302
:102CB0002162A284E28400206064212384F84130F0
:102CC000A56B114BAB62A56B104BEB62A56B104B68
:102CD0002B63A36B5863256813462A1DA06BFEF770
:102CE000B5FB21686FF0400008602068143050E8A0
:102CF000001F41F0800140E80012002AF5D10020B9
:102D000070BD012070BD0000CF3E0008113F0008DB
:102D1000E13D00087047704738B50546006819491D
:102D200088422DD10168C9061DD501684068009010
:102D30002846FFF790FDE86B00684068C0F140004E
:102D400084B2601E3F2809D80F49224601F1400095
:102D5000FDF738FC0D4801214480017040220A49EA
:102D60002846FFF78BFF28680168090705D401682A
:102D7000490702D40168890702D56FF00E0101608E
:102D800038BD0000003801407002002060000020C3
:102D900010B5402205490648FFF770FF0448006857
:102DA000C16841F01001C16010BD00007002002038
:102DB000A001002070B505001AD00E48806B90F875
:102DC0002100012814D12846FDF792FB04468028F3
:102DD00000D37F24224629460748FDF7F3FB064926
:102DE0000020A2B20855BDE870400248FFF756BF68
:102DF00070BD0000A0010020F0020020FEE70000EE
:102E000010B50448FEF7F8FCBDE810400148FEF795
:102E10000DBD0000B000002010B50448FEF7ECFC2A
:102E2000BDE810400148FEF701BD0000B0000020E1
:102E300001684A69D24352050FD46FF480624A6137
:102E4000002140F8301F202242738173026942F052
:102E500004020261017301207047002070470000E6
:102E60002DE9F84F0446C06A1E4693460D46216878
:102E70000A6842F480620A60082807D0012805D059
:102E800010F5803F02D0206B112804D12068016822
:102E900041F4807101604FF001195B460022494600
:102EA0002046009600F0CCF84FF4007840B120683E
:102EB0000068C00501D5C4F840800320BDE8F88F44
:102EC0002069DFF884A0B0F5804F0FD0062021687C
:102ED00000EAD51747F0F000086133465A460AF178
:102EE0000601204600F0F4F858BB03E0E8B240F0D9
:102EF00001001CE02168E8B2086133465A46514699
:102F0000204600F0E5F8E0B9206841698169009148
:102F1000016841F4807101605B4600224946204609
:102F2000009600F08DF80028C1D147F0F10021682B
:102F3000086133465A465146204600F0C9F8002839
:102F4000BCD00120BAE7000002000100F8B5044639
:102F5000C06A1E460D461746082807D0012805D02E
:102F600010F5803F02D0206B122804D12068016840
:102F700041F480710160134600224FF00111204698
:102F8000009600F05DF840B120680068C00502D5E9
:102F90004FF4007020640320F8BD2069B0F5804F25
:102FA0000ED00620216800EAD51040F0F00008613C
:102FB00033463A460B49204600F08AF878B902E0D9
:102FC00005F0FE0000E0E8B22168086105493346DB
:102FD0003A46891F204600F07BF80028DCD001200B
:102FE000F8BD00000800010070B516460D46044605
:102FF0001EE02046FFF71CFF08B1012070BD681CD1
:1030000016D0FEF7F3FB801BA84200D885B92068D4
:103010004069C04340070BD5002044F8300F202101
:103020006173A073216941F0200121612073E4E7FD
:1030300020684069C0434007DBD4002070BD000019
:103040002DE9F047984617460D460446C1F307465A
:10305000DDF820902AE000BFB8F1FF3F26D0FEF750
:10306000C5FBA0EB0901414502D8B8F1000F1DD105
:103070002068012E16D0806925EA00000004000CAB
:1030800012D00020B84211D1002044F8300F202186
:103090006173A073216941F0200121612073012037
:1030A000BDE8F0874069E7E70120EBE72068012EE3
:1030B0000AD0806925EA00000004000C06D0002038
:1030C000B842C9D00020EBE74069F3E70120F7E7F9
:1030D0002DE9F047984616460D4604464FF0000984
:1030E0004FF0200AC1F3074723E020684069C0433E
:1030F000400515D42068016841F400710160216821
:103100006FF480604861C4F8309084F83DA084F882
:103110003E90216C41F00401216484F83C9021E050
:10312000701C06D0FEF762FBA0EB0800B04203D88B
:1031300016B1012F1FD021E02068012F15D0806922
:1031400025EA00000004000C18D000BF44F8309FAE
:1031500084F80DA084F80E90216941F020012161CE
:1031600084F80C900120BDE8F087406925EA000052
:103170000004000CEAD12068406901E02068806901
:1031800025EA00000004000CAFD1ECE72DE9F04186
:10319000002590460E460446202728E04069C0439B
:1031A000C0060CD454F8301B6FF01000486144F88E
:1031B00010596777A577206A2062257714E0FEF71B
:1031C00015FBA0EB0800B04200D886B92068406922
:1031D000C04340060BD544F8305F6773A573206980
:1031E00040F02000206125730120BDE8F0812068B7
:1031F0004169C9434906D1D40020F6E770B51646A7
:103200000D4604461EE02046FFF712FE08B10120DD
:1032100070BD681C16D0FEF7E9FA801BA84200D8E2
:1032200085B920684069C04300060BD5002044F8EA
:10323000300F20216173A073216941F020012161C9
:103240002073E4E720684069C0430006DBD4002017
:1032500070BD000003B581B06421009141000123DD
:1032600002AA0448FEF784FD08B100200EBD01202B
:103270000EBD0000B000002000EB8001054800EB0F
:103280008101887B002803D000228A73C87BCA731F
:103290007047000024000020704700002DE9F05F17
:1032A0000026384F4FF47A794FF0030B4FF4FA7A37
:1032B0004FF00108354600BF06EB860007EB80049F
:1032C00021896068FEF788FA40B10020A17A0629BA
:1032D00051D2DFE801F00509142D4E4E0120F5E72B
:1032E00028B384F80A8008E088B3A089401C80B223
:1032F000A08114283FD30220A072A5813BE00028C2
:10330000A0890DD0401C80B2A081484533D3A07B5A
:1033100068B984F80FB084F80E802574042014E096
:10332000484527D284F80AB0A58184F8108022E0AD
:103330000028A08911D050450AD8207C40B1022035
:10334000E07384F80E8025740520A07213E011E06C
:1033500084F80A80A58125740DE0401C80B2A0810C
:10336000504508D9207C28B184F80F8084F80E805D
:1033700000E000B9A572761CF6B2032E9CD3BDE81E
:10338000F09F0000240000200D4808B5416941F07D
:10339000010141614069002200F0010000901146E6
:1033A0000E20FEF759FE0E20FEF748FE00221146C1
:1033B0000F20FEF751FEBDE808400F20FEF73EBE8D
:1033C0000010024070B586B000242148009401949A
:1033D00002940394816941F010018161816901F0D7
:1033E00010010491816941F020018161816901F03E
:1033F00020010491816941F004018161816901F03A
:1034000004010491816941F0080181618069114ED4
:1034100000F008004FF40055049000222946304681
:10342000FEF7DFF911200095CDE901040220039099
:1034300069463046FEF7E0F84FF4E240CDE900047B
:103440000120029069460448FEF7D6F806B070BD28
:103450000010024000100140000C01400D4810B562
:103460000B4901600C49416000214FF480428160AA
:10347000C0E9031241618161C1610162FEF7D6F9C1
:10348000002803D0BDE81040FDF796BE10BD000037
:1034900000540040B0000020801A06000D4810B50E
:1034A0000B4901600C49416000214FF4804281606A
:1034B000C0E9031241618161C1610162FEF7B6F9A1
:1034C000002803D0BDE81040FDF776BE10BD000017
:1034D0000058004004010020801A060010B58AB090
:1034E000002407941C2168460894FDF7D2F81E4872
:1034F0004FF0804101604721C0E9011440F2E731FB
:10350000C0E903148461FFF717F908B1FDF754FE11
:10351000079407A914480894FFF750F808B1FDF77D
:103520004BFE6020CDE90004022002900022694693
:1035300004940D48FFF79AF808B1FDF73DFE042208
:1035400069460948FFF792F808B1FDF735FE0822F1
:1035500069460548FFF78AF808B1FDF72DFE0248D5
:10356000FFF760F80AB010BD580100200C4810B5F4
:103570000A4901604FF416514160002181600C221C
:10358000C160C0E904128161C161FFF7D3FA00286C
:1035900003D0BDE81040FDF70FBE10BD003801405C
:1035A000A0010020FEE7FEE710B54FF4806103485C
:1035B000FDF74DF8BDE8104000F0C2B8F10300205F
:1035C00010B5FEF713F92E4C6168401AB0F5FA6F8A
:1035D00054D3FEF70BF960602A48FEF70DF901207D
:1035E000FDF76CFF2748FEF721F9AE2000F018F92F
:1035F000D52000F015F9802000F012F9A82000F085
:103600000FF93F2000F00CF9D32000F009F9002059
:1036100000F006F9402000F003F9A12000F000F9C5
:10362000C82000F0FDF8DA2000F0FAF8122000F0CF
:10363000F7F8812000F0F4F8CF2000F0F1F8D9205D
:1036400000F0EEF8F12000F0EBF8DB2000F0E8F8F5
:10365000302000F0E5F8A42000F0E2F8A62000F009
:10366000DFF88D2000F0DCF8142000F0D9F8AF204E
:1036700000F0D6F8FFF798FF0020207010BD000082
:10368000640000200401002010B5C820FDF716FFDB
:103690006423032278212848FEF78CF900B1FEE765
:1036A000AE2000F0BDF8D52000F0BAF8802000F080
:1036B000B7F8A82000F0B4F83F2000F0B1F8D3200C
:1036C00000F0AEF8002000F0ABF8402000F0A8F8C1
:1036D000A12000F0A5F8C82000F0A2F8DA2000F040
:1036E0009FF8122000F09CF8812000F099F8CF207C
:1036F00000F096F8D92000F093F8F12000F090F84F
:10370000DB2000F08DF8302000F08AF8A42000F0D3
:1037100087F8A62000F084F88D2000F081F81420AE
:1037200000F07EF8AF2000F07BF8FFF73DFF034983
:103730000020087010BD000004010020640000207B
:1037400070B5084D00240021204600F01FF805EB5D
:10375000C410802100F082F8641CE4B2082CF2D37B
:1037600070BD0000F103002010B5044608280AD2FD
:10377000002100F00BF80448802100EBC410BDE8E4
:10378000104000F06BB810BDF103002010B5B03050
:103790000C46C0B200F044F804F00F0000F040F80E
:1037A000102000EB1410BDE8104000F039B8000004
:1037B00010B5431E042B19D2002917D0102915D893
:1037C0000B4B03EB002000EBC1010A48A1F5847309
:1037D00000EB021200208839A2F50072145C1C5420
:1037E0001418247A0C54401C0828F7DB10BD000084
:1037F000F10300204446000870B515000C4606464B
:103800000CD006E02146641CE4B230466D1CFFF784
:10381000CFFF2A78002A01D0102CF3D970BD000008
:103820001CB5002401948DF805001420009002239B
:1038300001AA78210748FEF79BFA074940B10878AA
:10384000401CC0B20870032801D3FFF7B9FE1CBDAD
:103850000C701CBD040100206400002038B50C462B
:10386000002820D0802C1ED80F4B402122461970F2
:103870000146581CFCF7A6FE1420641C0090A3B25D
:10388000094A78210948FEF773FA094948B10878CE
:10389000401CC0B20870032805D3BDE83840FFF7CC
:1038A0008FBE0020087038BD700300200401002086
:1038B0006400002010B500210648FEF77DFF0421BA
:1038C0000448FEF779FFBDE8104008210148FEF7E3
:1038D00073BF000058010020B1F57A7F01D340F298
:1038E000E731064A126828B1012805D0022800D124
:1038F000D16370475163704791637047580100204E
:10390000704700002DE9F04796B00446FCF7F0FD43
:103910004FF0000902E0401E04F8009030B1211879
:1039200011F8011C0D29F6D00A29F4D023212046D4
:10393000FCF7D4FD00287CD0401C0546042247A19A
:10394000FCF7F5FD474C4FF0010810B3052246A1E6
:103950002846FCF7ECFD002852D0052244A1284659
:10396000FCF7E5FD002875D161890A20B1FBF0F272
:10397000B1FBF0F500FB12162189B1FBF0F2B1FBAF
:10398000F0F700FB1212B4F9061000294BDB0B46CE
:103990004AE0281D38A1FCF79BFD054636A1002012
:1039A000FCF796FD824634A10020FCF791FD074606
:1039B000002D4FD0BAF1000F4CD0002F4AD028462E
:1039C000FCF778FD06465046FCF774FD0546384680
:1039D000FCF770FDFF2E3DD8002D3BDBFF2D39DCC1
:1039E000002837DBFF2835DCF3B26370E9B2C2B2DE
:1039F000A170E27084F8009084F8058018460BE00E
:103A0000681DFCF757FD032824D8207084F8058032
:103A100020B9E278A178607800F072F816B0BDE8BD
:103A2000F04700F0C1BB4B4293FBF0F400FB1434B1
:103A300000E00FE00DF1080891FBF0F388E8640066
:103A4000CDE900470DA2402105A8FCF7F1FB05A830
:103A5000FFF7B0F916B0BDE8F08700004C45443AD6
:103A600000000000000000204D4F44453A000000D7
:103A70005155455259000000202C0900234441545F
:103A8000413A543D25642E25642C503D25642E2555
:103A9000642C4C3D25642E25640D0A0010B5094C9C
:103AA00007482178405C0246114600F029F820784A
:103AB000401CC0B22070802801D30020207010BDAF
:103AC0006C5000086C00002010B5FFF7F3FE0022D8
:103AD000BDE810401146104600F012B810B5074C72
:103AE000608800F037F86088801C80B26080B0F594
:103AF000B47F01D30020608010BD00006C00002066
:103B000070B50D4640F2E7314843FF26B0FBF6F0B2
:103B1000A0F2E730404281B214460020FFF7DCFEFD
:103B200040F2E7304543B5FBF6F0A0F2E730404203
:103B300081B20120FFF7D0FE40F2E7304443B4FBEE
:103B4000F6F0A0F2E730BDE87040404281B20220BA
:103B5000FFF7C2BE4FF4B471B0FBF1F201FB1200EB
:103B6000044900EB4002885C0A4451789278FFF7E0
:103B7000C7BF0000344C00087047000010B5FEF7C6
:103B800005FA04480168491C0160BDE81040FFF7D0
:103B900085BB00009800002030B58FB02821684612
:103BA000FCF777FD14210AA8FCF773FD0121080436
:103BB000CDE900100024029402250491CDE90750BC
:103BC0004FF4E01009906846FEF754FB08B172B656
:103BD000FEE70F20CDE90A054FF48060CDE90C40E7
:103BE00002210AA80E94FEF769FA002801D072B6E5
:103BF000FEE70FB030BD7047F0B50268194B1A4CA4
:103C00001A4D4FF08047984205D0B84203D0A042E9
:103C100001D0A84203D122F070064A68324398428C
:103C200005D0B84203D0A04201D0A84203D122F46B
:103C30004074CA6822434C6922F080022243026029
:103C40008A68C2620A688262984201D10969016386
:103C5000012141610169C90703D0016921F0010116
:103C60000161F0BD002C014000040040000800404C
:103C700010B501F01F030121046A99408C430462CE
:103C8000016A9A401143016210BD000030B5036A19
:103C9000026A22F0010202624268846924F073051C
:103CA0000C682C4323F002058B682B430A4DA84275
:103CB0000BD123F00805CB6822F440722B434D69E9
:103CC00023F0040315438A692A43426084614968EA
:103CD0004163036230BD0000002C014030B5026A30
:103CE000036A23F010030362436884690D6824F4B7
:103CF000E64444EA05248D6822F0200242EA0512D7
:103D00000B4DA8420ED1CD6822F0800242EA051286
:103D10004D6923F4406343EA85038D6922F0400234
:103D200043EA85034360846149688163026230BD70
:103D3000002C014030B5036A026A22F480720262EC
:103D40004268C46923F4007324F073050C682C43A3
:103D50008D6843EA05230C4DA8420ED1CD6823F4AB
:103D6000006343EA05234D6922F4405242EA0512FA
:103D70008D6923F4806342EA05124260C461496898
:103D8000C163036230BD0000002C014030B5046AFD
:103D9000026A22F4805202624268C3690D6823F409
:103DA000E64343EA05238D6824F4005444EA0534CD
:103DB000064DA84204D14D6922F4804242EA8512A0
:103DC0004260C36149680164046230BD002C014057
:103DD00010B5406A0021C185C184FEF774FD10BD95
:103DE00070B5446A2068406994F84110C0F3C0106F
:103DF0000025212904D118B1E584204600F0B4F84B
:103E00002068406994F84210C0F38010222904D140
:103E100018B1E585204600F080F8606C40F0100095
:103E200060642046FEF74FFD70BD10B50146406A44
:103E3000096809684FF0000289062ED4C28501681E
:103E40000C3151E8003F23F4807341E80034002C2A
:103E5000F5D10168143151E8003F23F0010341E836
:103E60000034002CF5D10168143151E8003F23F0F3
:103E7000400341E80034002CF5D1202180F84210A5
:103E8000016B012909D101680C3151E8003F23F091
:103E9000100341E80034002CF5D14263016B012985
:103EA00002D0FEF7F9FE10BD818DFEF7D3FC10BDE8
:103EB00010B5406A01214163016B012902D0FEF770
:103EC000ECFE10BD818D4908FEF7C4FC10BD10B595
:103ED0000146406A09680968890616D40021C18430
:103EE0000168143151E8002F22F0800241E80023DC
:103EF000002BF5D101680C3151E8002F42F040024F
:103F000041E80023002BF5D110BDFEF703FF10BDE3
:103F100010B5406AFEF7FFFE10BD01680C3151E894
:103F2000002F22F4907241E80023002BF5D10168A4
:103F3000143151E8002F22F0010241E80023002B48
:103F4000F5D1016B012909D101680C3151E8002F2D
:103F500022F0100241E80023002BF5D1202180F847
:103F6000421000210163704701680C3151E8002FB5
:103F700022F0C00241E80023002BF5D1202180F877
:103F80004110704708B590F84210222901D0022054
:103F900008BD82684FF480539A4201D1016921B172
:103FA000816A9A421BD04AB10AE00268816A52686B
:103FB000C2F308020A80816A891C08E0026972B1B2
:103FC0000268526802F07F020A70816A491C8162AD
:103FD000C18D491E0904090CC18503D01BE002688C
:103FE0005268F1E70168CA6822F02002CA600168DD
:103FF000CA6822F48072CA6001684A6922F001022C
:104000004A61202180F8421000214163026B012A9D
:1040100003D0FEF741FE002008BD016301680C31AA
:1040200051E8002F22F0100241E80023002BF5D1C7
:1040300001680A68D20602D50A6849680091818D34
:10404000FEF708FCE7E7000070B504460068016968
:10405000E26821F44051114301612169A0680843DD
:10406000616908432168CA6841F20C639A430243BC
:10407000CA6020684169A26921F44071114341611D
:104080001E492068884202D1FEF7BEF801E0FEF723
:10409000ABF800EBC00101EB001260686421800006
:1040A000B2FBF0F3B3FBF1F36FF018067343B2FB0E
:1040B000F0F5B2FBF0F605EB8305322303EB0515B3
:1040C000B5FBF1F5B6FBF1F605F0F00505EB0615CD
:1040D000B2FBF0F6B2FBF0F0B0FBF1F06FF01802BB
:1040E000504306EB800003EB0010B0FBF1F02168B9
:1040F00000F00F002844886070BD000000380140C7
:1041000038B581620446828500201346606422220D
:1041100084F84220E56B1B4AAA62E56B1A4AEA6200
:10412000E56B1A4A2A63E26B50630A462168E06B2A
:10413000091DFDF78BF9206801684068009020692F
:1041400048B120680C3050E8001F41F4807140E80D
:104150000012002AF5D12068143050E8001F41F009
:10416000010140E80012002AF5D12068143050E81F
:10417000001F41F0400140E80012002AF5D1002064
:1041800038BD00002B3E0008B13E0008E13D0008AC
:1041900010B50448FEF798FBBDE810400148FEF753
:1041A000BBBD0000A001002000B50D4B89B00FCBB6
:1041B0008DE80F000B490CA204A809785DF82130A6
:1041C0001121FCF735F804AA01210420FFF714FBA4
:1041D0000620FFF7C9FA0720FFF7C6FA09B000BDAD
:1041E00034460008000000204D4F44453A252D314B
:1041F00030732000FEE70907090E002804DB00F1F8
:10420000E02080F80014704700F00F0000F1E0207B
:1042100080F8141D704730380A2801D201207047F9
:104220000020704796B0FDF7B9FEFFF7B5FCFFF729
:10423000C9F8FFF7A9F8FFF731F9FFF797F9FFF78A
:104240004DF9FFF70BF9FFF727F8FFF71DFAFEF717
:104250009FFDFCF7F9FCFCF787FED0B1FFF7A4F94E
:10426000FFF732FCFFF7A0FFDFF804A3C14C4FF0CB
:10427000010B00254FF00A090020FEF7FDFF07465D
:104280000120FEF7F9FF0646012F0ED0032F23D0A1
:1042900028E00121B8A20846FFF7AEFA0020FFF798
:1042A00063FA0120FFF760FAFEE72079B549401C68
:1042B00000F0030000EB40022071885C0A4460704B
:1042C0005178A1709278E270257084F805B0FFF7FC
:1042D00017FCFFF769FF05E00022657111461046E3
:1042E000FFF70EFC012E02D0032E13D018E0207829
:1042F000401CC0B22070032800D9257084F805B096
:10430000207820B9E278A1786078FFF7F9FBFFF711
:104310004BFF05E00022657111461046FFF7F0FBE8
:104320009AF80010504699B1057040216846FCF794
:10433000B0F9954806883F2E00D33F263246934970
:104340006846FCF73FF968460DF80650FFF7DAFAC1
:10435000FCF78CFCFCF76EFEFDF748FA6169401A29
:10436000C8287DD3FDF742FA60614FF48071884818
:10437000FDF732FA012822D0002602A903A8FCF793
:10438000E1FD00284FD0BDF90C00E080BDF8081019
:104390002181B4F90C10884202D1216A8E4223D0C7
:1043A000A0810028014600DA49424A4691FBF2F317
:1043B00009FB131190FBF9F31EB176A002E0012670
:1043C000DBE775A0CDE9001074A2112105A8FBF769
:1043D0002FFF012105AA0846FFF70EFA0020FFF77C
:1043E000C3F90120FFF7C0F9BDF80800E189884250
:1043F00033D04946B0FBF1F2B0FBF9F309FB1202EE
:10440000E08100926AA2112105A8FBF711FF05AA1D
:1044100001210220FFF7F0F90220FFF7A5F90320A0
:10442000FFF7A2F919E0206A864216D00EB159A30F
:1044300000E059A361A2112105A8FBF7F9FE0121B3
:1044400005AA0846FFF7D8F90020FFF78DF90120EB
:10445000FFF78AF94FF6D460A08104A8266200E035
:1044600021E0FCF7DFFBF0B1BDF810006081218A8C
:10447000884218D04946B0FBF1F2B0FBF9F309FBD2
:1044800012022082009251A2112105A8FBF7D0FE52
:1044900005AA01210320FFF7AFF90420FFF764F913
:1044A0000520FFF761F9FDF7A1F9E169401A41F232
:1044B0008831884228D3FDF799F9E061618948463F
:1044C000B1FBF0F2B1FBF0FC09FB12182189B1FB42
:1044D000F0F2B1FBF0F609FB1217B4F906100A1E50
:1044E00000DA514291FBF0F300FB131192FBF9F358
:1044F000CDF810808DE8C21038A2402105A8FBF746
:1045000097FE05A8FEF756FCFDF770F9A169401A61
:104510001E28FFF4B1AEFDF769F9A06160790028AB
:104520003FF4AAAE207801280AD002280BD0032835
:104530007FF4A2AEB4F90600962807DA96200AE0C6
:10454000FFF7CCFA98E6FFF7A9FA95E64FF4AF71BA
:10455000884200DD0846963800EB4000810091FB60
:10456000F9F0C0F1F00080B2FFF7F4FA84E6000041
:104570006000002000000020424D503238302046BC
:1045800061696C002846000862000020B00200202B
:10459000000C01404F4B00004E4F0000543A256480
:1045A0002E256420432042543A2573200000000049
:1045B000503A25642E25642068506100543A2D2D10
:1045C0002E2D20432042543A257320004C3A256476
:1045D0002E2564206C782020202020002344415484
:1045E000413A543D25642E25642C503D25642E25EA
:1045F000642C4C3D25642E25640D0A0010B500295D
:104600000AD00878002807D005487844FCF7C2FA99
:10461000002801D0002010BD0248784410BD0000E1
:104620005E0B0000560B0000FF000000FF000000C2
:10463000FFFFFFFF285100084051000830510008DB
:1046400038510008000000000000000000000000D9
:1046500000000000000000F800000000000000332F
:104660003000000000100C06100C060000000000D6
:104670000000000040C07840C0784000043F0404BF
:104680003F040400007088FC08300000001820FF80
:10469000211E0000F008F000E018000000211C03BB
:1046A0001E211E0000F00888700000001E21232437
:1046B0001927211010160E00000000000000000055
:1046C00000000000000000E01804020000000007E5
:1046D0001820400000020418E000000000402018EC
:1046E00007000000404080F0804040000202010FBF
:1046F00001020200000000F0000000000101011FA3
:1047000001010100000000000000000080B0700006
:104710000000000000000000000000000001010196
:104720000101010100000000000000000030300025
:1047300000000000000000008060180400601806FF
:104740000100000000E010080810E000000F102039
:1047500020100F00001010F8000000000020203F83
:10476000202000000070080808887000003028240D
:1047700022213000003008888848300000182020AE
:1047800020110E000000C02010F8000000070424D3
:10479000243F240000F80888880808000019212018
:1047A00020110E0000E0108888180000000F112072
:1047B00020110E0000380808C83808000000003F2B
:1047C000000000000070880808887000001C22218A
:1047D00021221C0000E010080810E0000000312237
:1047E00022110F00000000C0C000000000000030D7
:1047F0003000000000000080000000000000806029
:1048000000000000000080402010080000010204A9
:104810000810200040404040404040000404040490
:10482000040404000008102040800000002010084C
:1048300004020100007048080808F0000000003081
:1048400036010000C030C828E810E000071827240F
:1048500023140B000000C038E0000000203C2302BD
:104860000227382008F8888888700000203F202020
:1048700020110E00C0300808080838000718202052
:104880002010080008F808080810E000203F202049
:1048900020100F0008F88888E8081000203F20202A
:1048A0002320180008F88888E8081000203F20001E
:1048B00003000000C0300808083800000718202056
:1048C000221E020008F808000008F808203F210115
:1048D00001213F20000808F8080800000020203FC0
:1048E0002020000000000808F8080800C080808030
:1048F0007F00000008F888C028180800203F200129
:104900002638200008F8080000000000203F202082
:104910002020300008F8F800F8F80800203F003F99
:10492000003F200008F830C00008F808203F2000B1
:1049300007183F00E01008080810E0000F102020C2
:1049400020100F0008F808080808F000203F210197
:1049500001010000E01008080810E0000F182424EE
:1049600038504F0008F8888888887000203F200061
:10497000030C302000708808080838000038202117
:1049800021221C00180808F8080818000000203F21
:104990002000000008F808000008F808001F202088
:1049A00020201F000878880000C838080000073859
:1049B0000E010000F80800F80008F800033C0700AA
:1049C000073C0300081868808068180820302C0312
:1049D000032C30200838C800C83808000000203FE9
:1049E0002000000010080808C838080020382621D8
:1049F00020201800000000FE020202000000007FDC
:104A000040404000000C30C00000000000000001E9
:104A10000638C00000020202FE00000000404040D4
:104A20007F000000000004020202040000000000F9
:104A30000000000000000000000000008080808076
:104A4000808080800002020400000000000000005E
:104A500000000000000080808080000000192422F7
:104A600022223F2008F8008080000000003F112033
:104A700020110E000000008080800000000E112038
:104A800020201100000000808088F800000E112016
:104A900020103F200000808080800000001F222224
:104AA00022221300008080F0888888180020203F90
:104AB000202000000000808080808000006B9494A3
:104AC0009493600008F8008080800000203F21005F
:104AD00000203F2000809898000000000020203F28
:104AE00020200000000000809898000000C0808016
:104AF000807F000008F8000080808000203F2402B2
:104B00002D302000000808F8000000000020203FA1
:104B1000202000008080808080808000203F200056
:104B20003F20003F8080008080800000203F2100E7
:104B300000203F200000808080800000001F202097
:104B400020201F00808000808000000080FFA120C6
:104B500020110E000000008080808000000E1120D7
:104B600020A0FF80808080008080800020203F2166
:104B70002000010000008080808080000033242419
:104B800024241900008080E0808000000000001FC5
:104B9000202000008080000000808000001F202076
:104BA00020103F20808080000080808000010E3037
:104BB0000806010080800080008080800F300C0398
:104BC0000C300F0000808000808080000020312E9B
:104BD0000E312000808080000080808080818E7077
:104BE0001806010000808080808080000021302C29
:104BF0002221300000000000807C02020000000042
:104C0000003F404000000000FF00000000000000E6
:104C1000FF0000000002027C800000000040403FD6
:104C20000000000000060101020204040000000070
:104C300000000000FF0000FF0400FF0800FF0C0060
:104C4000FF1000FF1500FF1900FF1D00FF2100FFEE
:104C50002600FF2A00FF2E00FF3200FF3700FF3B37
:104C600000FF3F00FF4300FF4800FF4C00FF5000E3
:104C7000FF5400FF5900FF5D00FF6100FF6500FF6A
:104C80006A00FF6E00FF7200FF7600FF7B00FF7F6F
:104C900000FF8300FF8700FF8C00FF9000FF94005F
:104CA000FF9800FF9D00FFA100FFA500FFA900FFE6
:104CB000AE00FFB200FFB600FFBA00FFBF00FFC3A7
:104CC00000FFC700FFCB00FFD000FFD400FFD800DB
:104CD000FFDC00FFE100FFE500FFE900FFED00FF62
:104CE000F200FFF600FFFA00FFFF00FAFF00F6FFF8
:104CF00000F2FF00EDFF00E9FF00E5FF00E1FF002B
:104D0000DCFF00D8FF00D4FF00D0FF00CBFF00C7BE
:104D1000FF00C3FF00BFFF00BAFF00B6FF00B2FFF5
:104D200000AEFF00A9FF00A5FF00A1FF009DFF004E
:104D300098FF0094FF0090FF008CFF0087FF008326
:104D4000FF007FFF007BFF0076FF0072FF006EFF19
:104D5000006AFF0065FF0061FF005DFF0059FF0072
:104D600054FF0050FF004CFF0048FF0043FF003F8E
:104D7000FF003BFF0037FF0032FF002EFF002AFF3D
:104D80000026FF0021FF001DFF0019FF0015FF0096
:104D900010FF000CFF0008FF0004FF0000FF0000F0
:104DA000FF0400FF0800FF0C00FF1000FF1500FFCC
:104DB0001900FF1D00FF2100FF2600FF2A00FF2E23
:104DC00000FF3200FF3700FF3B00FF3F00FF4300C2
:104DD000FF4800FF4C00FF5000FF5400FF5900FF48
:104DE0005D00FF6100FF6500FF6A00FF6E00FF725B
:104DF00000FF7600FF7B00FF7F00FF8300FF87003E
:104E0000FF8C00FF9000FF9400FF9800FF9D00FFC3
:104E1000A100FFA500FFA900FFAE00FFB200FFB692
:104E200000FFBA00FFBF00FFC300FFC700FFCB00B9
:104E3000FFD000FFD400FFD800FFDC00FFE100FF3F
:104E4000E500FFE900FFED00FFF200FFF600FFFACA
:104E500000FFFF00FAFF00F6FF00F2FF00EDFF0089
:104E6000E9FF00E5FF00E1FF00DCFF00D8FF00D410
:104E7000FF00D0FF00CBFF00C7FF00C3FF00BFFF54
:104E800000BAFF00B6FF00B2FF00AEFF00A9FF00AE
:104E9000A5FF00A1FF009DFF0098FF0094FF009078
:104EA000FF008CFF0087FF0083FF007FFF007BFF78
:104EB0000076FF0072FF006EFF006AFF0065FF00D2
:104EC00061FF005DFF0059FF0054FF0050FF004CE0
:104ED000FF0048FF0043FF003FFF003BFF0037FF9C
:104EE0000032FF002EFF002AFF0026FF0021FF00F6
:104EF0001DFF0019FF0015FF0010FF000CFF000848
:104F0000FF0004FF0000FF0400FF0800FF0C00FF8B
:104F10001000FF1500FF1900FF1D00FF2100FF26F4
:104F200000FF2A00FF2E00FF3200FF3700FF3B008A
:104F3000FF3F00FF4300FF4800FF4C00FF5000FF11
:104F40005400FF5900FF5D00FF6100FF6500FF6A2C
:104F500000FF6E00FF7200FF7600FF7B00FF7F0006
:104F6000FF8300FF8700FF8C00FF9000FF9400FF8D
:104F70009800FF9D00FFA100FFA500FFA900FFAE64
:104F800000FFB200FFB600FFBA00FFBF00FFC30082
:104F9000FFC700FFCB00FFD000FFD400FFD800FF09
:104FA000DC00FFE100FFE500FFE900FFED00FFF29C
:104FB00000FFF600FFFA00FFFF00FFFF00FAFF000E
:104FC000F6FF00F2FF00EDFF00E9FF00E5FF00E162
:104FD000FF00DCFF00D8FF00D4FF00D0FF00CBFFB4
:104FE00000C7FF00C3FF00BFFF00BAFF00B6FF000D
:104FF000B2FF00AEFF00A9FF00A5FF00A1FF009DCA
:10500000FF0098FF0094FF0090FF008CFF0087FFD7
:105010000083FF007FFF007BFF0076FF0072FF0030
:105020006EFF006AFF0065FF0061FF005DFF005931
:10503000FF0054FF0050FF004CFF0048FF0043FFFB
:10504000003FFF003BFF0037FF0032FF002EFF0054
:105050002AFF0026FF0021FF001DFF0019FF001599
:10506000FF0010FF000CFF0008FF000480868B91FA
:10507000969CA1A6ACB1B6BBBFC4C8CDD1D4D8DC78
:10508000DFE2E5E7E9EBEDEFF0F1F1F2F2F2F1F159
:10509000F0EFEDEBE9E7E5E2DFDCD8D4D1CDC8C431
:1050A000BFBBB6B1ACA6A19C96918B86807A756F7A
:1050B0006A645F5A544F4A45413C38332F2C2824A8
:1050C000211E1B1917151311100F0E0E0E0E0F0FA8
:1050D0001011131517191B1E2124282C2F33383CAF
:1050E00041454A4F545A5F646A6F757A0102020360
:1050F0000405060708090A0B0C0D0E0F101000001E
:105100000000000000000102030406070809000077
:105110000000010203040400000800000000000079
:1051200000020001000010005354415449430000A4
:10513000425245415448000054454D500000000083
:105140005241494E424F570078520008000000205B
:10515000B00000002801000828530008B00000201B
:10516000C0190000440100081001000043000000C5
:10517000F8FFFFFF00404040404040404040414178
:10518000414141404040404040404040404040401C
:1051900040404040400502020202020202020202B6
:1051A00002020202022020202020202020202002B3
:1051B0000202020202029090909090901010101043
:1051C00010101010101010101010101010101010DF
:1051D0000202020202028888888888880808080873
:1051E000080808080808080808080808080808083F
:1051F0000202020240000000000000000000000067
:10520000000000000000000000000000000000009E
:10521000000000000000000000000000000000008E
:10522000000000000000000000000000000000007E
:10523000000000000000000000000000000000006E
:10524000000000000000000000000000000000005E
:10525000000000000000000000000000000000004E
:10526000000000000000000000000000000000003E
:1052700000000000000000000100BCC700010000A9
:1052800000000000D4FE0000FFFF0000000000004E
:105290000000000000000000FFFFFFFF0000000012
:1052A000000C0140001000000000000000000000A1
:1052B00001000000000C0140002000000000000080
:1052C0000000000002000000000C0140004000004F
:1052D00000000000000000000000000000000000CE
:1052E00000000000000000000000000000000000BE
:1052F00000000000000000000000000000000000AE
:10530000000000000000000000000000000000009D
:10531000000000000100000010000000000000007C
:0853200000127A0000000000F9
:04000005080000ED02
:00000001FF
